:100000000C947B000C94A3000C94A3000C94A3000C
:100010000C94A3000C94A3000C94E00A0C94710CB3
:100020000C94A3000C94A3000C94A3000C94A300C4
:100030000C94A3000C94A3000C94A3000C94A300B4
:100040000C94DA130C94A3000C9487080C946108A8
:100050000C94A3000C94A3000C94A3000C94A30094
:100060000C94430B0C94A3004E414E494E495459F5
:10007000494E46CDCCCC3D0AD7233C17B7D1387773
:10008000CC2B329595E6241FB14F0A000020410089
:1000900000C84200401C4620BCBE4CCA1B0E5AAED3
:1000A000C59D7400000000240027002A0000000005
:1000B00000250028002B00040404040404040402A6
:1000C00002020202020303030303030102040810F5
:1000D00020408001020408102001020408102000C2
:1000E00000000800020100000304070000000000F7
:1000F00000000000CF1A11241FBECFEFD8E0DEBFF2
:10010000CDBF25E0ACE0B3E001C01D92AC30B2073A
:10011000E1F713E0A0E0B1E0E0E0F7E402C0059011
:100120000D92AC30B107D9F710E0CBE7D0E004C0B6
:100130002197FE010E943720CA37D107C9F70E94D4
:1001400024140C947E230C940000EF92FF920F93E2
:100150001F93CF93DF93CDB7DEB760970FB6F894B8
:10016000DEBF0FBECDBF8091D3049091D404FC01BB
:1001700036968E010F5F1F4F4696D80141915191DF
:10018000619171914D935D936D937D93E817F9079C
:10019000A9F782E491E00E94CA117E0181E1E80E94
:1001A000F11CF80161917191819191918F0146E06B
:1001B0000E9439128EE491E00E94CA110E151F05AB
:1001C00081F780E591E060960FB6F894DEBF0FBE30
:1001D000CDBFDF91CF911F910F91FF90EF900C94C5
:1001E000CA11CF93DF93CDB7DEB728970FB6F89437
:1001F000DEBF0FBECDBFE091D304F091D404868959
:100200009789A08DB18D89839A83AB83BC83828DBE
:10021000938DA48DB58D8D839E83AF83B88782E542
:1002200091E00E94CA1169817A818B819C8146E0AC
:100230000E9439128EE491E00E94CA116D817E8184
:100240008F81988546E00E9439128EE491E00E94E9
:10025000CA1180E591E028960FB6F894DEBF0FBE74
:10026000CDBFDF91CF910C94CA11EF92FF920F9303
:100270001F93CF93DF93CDB7DEB764970FB6F89493
:10028000DEBF0FBECDBF00E010E020E0AE014F5F4B
:100290005F4F60E070E08091D3049091D4040E949D
:1002A000310F8AE591E00E94CA118E010F5F1F4F46
:1002B0007E0181E1E80EF11CF8016191719181915B
:1002C00091918F010E940D128EE491E00E94CA115B
:1002D0000E151F0589F780E591E00E94CA1164960A
:1002E0000FB6F894DEBF0FBECDBFDF91CF911F9147
:1002F0000F91FF90EF900895FC01608380911303AC
:1003000091E09093C2038093E4031092C303109290
:10031000E503862F806E90E00E94BA0E0C94BF0E0B
:100320008F929F92AF92BF92CF92DF92EF92FF9205
:100330001F93CF93DF9310E086EE93E00E94EA08CC
:10034000181619060CF061C086EE93E00E94C808EA
:10035000C82F80919604C8133CC04BEC54E064E96C
:1003600074E087E994E00E94BA1C7C01892B61F15A
:10037000A0909104B12CC0918F04D0919004C12C15
:10038000D12CCA14DB04B4F44E0148E050E0BE01A5
:10039000C7010E9440222B96892B41F4D401199663
:1003A000ED91FC911A97099511E00EC0BFEFCB1AA1
:1003B000DB0AE7CF111108C0E0919204F091930499
:1003C000309711F0C7010995109297041092CA0452
:1003D000B3CF8C2F0C2E000C990B0E942922892B55
:1003E00009F4AACFE091CA04E23308F0A5CF81E076
:1003F0008E0F8093CA04F0E0E157FB4FC087E82FCF
:10040000F0E0E157FB4F108697CF812FDF91CF911E
:100410001F91FF90EF90DF90CF90BF90AF909F9093
:100420008F9008958F929F92AF92BF92CF92DF925A
:10043000EF92FF92CF936B017C019B01AC010E9474
:100440005721811143C046015701E894B7F82FEFB7
:100450003FEF4FE75FE7C501B4010E9457218111CB
:100460000AC02FEF3FEF4FE75FE7C501B4010E94DD
:10047000521E18165CF12FEF3FEF4FE75FE4C70104
:10048000B6010E94522118160CF12FEF3FEF4FE7F3
:100490005FECC701B6010E94521E87FD17C020E025
:1004A00030E040E05FE4C701B6010E94521EC1E0A7
:1004B000882369F020E030E040E05FECC701B6013E
:1004C0000E94521E882319F0C0E001C0C1E08C2FA9
:1004D000CF91FF90EF90DF90CF90BF90AF909F9023
:1004E0008F9008950F931F93CF93DF938091130301
:1004F00091E09093C2038093E4031092C30310929F
:10050000E50360E083E894E00E948D09CBE8D3E046
:100510008E01688183E894E00E948D092296F8019B
:10052000618183E894E00E948D09F3E0CB39DF0715
:1005300079F7DF91CF911F910F910C94BF0E82E656
:1005400091E00E94CA118091CD049091CE040E9446
:10055000CA1180E591E00E94CA118091D104909166
:10056000D204EBE8F3E023E730E03183208329E392
:1005700030E03383228317821682118610860C9412
:100580007202EBE8F3E020E430E031832083338330
:10059000228337832683318720870C947202EBE80D
:1005A000F3E0118210821382128217821682118662
:1005B00010860C947202EBE8F3E029E730E0318317
:1005C00020833383228337832683318720870C94CB
:1005D00072023F924F925F926F927F928F929F92A0
:1005E000AF92BF92CF92DF92EF92FF920F931F9341
:1005F000CF93DF9300D000D01F92CDB7DEB77C0140
:10060000CB0168EE73E00E940F20FB01E95FFE4F13
:100610004081498364E670E00E940F20FB01E95F9E
:10062000FE4F30813A836AE070E00E940F20FB01A8
:10063000E95FFE4F20812C83FC01E95FFE4F808142
:100640008D834F3339F419823F3321F41A822F33CB
:1006500009F41C82C7010E94CF02CE0101965C0101
:100660004BE8C42E43E0D42E00E010E0312C2C01E6
:1006700050E1652E712C0230110509F456C00115A8
:10068000110591F470928C0360928B03C7010E9454
:1006900072026AE070E080E090E00E94941337E11B
:1006A000832E31E0932E25C00330110519F0C801C7
:1006B000019702C081E090E0FC01EE0FFF1FE557BB
:1006C000FC4FD201A80FB91F8C918270382A832D5C
:1006D00090E091838083F60171826082C7010E945D
:1006E00072026AE070E080E090E00E949413312C86
:1006F000D6CFF40191914F01F50180818923382AE9
:10070000F4018081832990E0F60191838083C70101
:100710000E9472026AE070E080E090E00E94941310
:100720008DE191E08815990521F70F5F1F4F9FEF2D
:10073000A91AB90AE2E0CE0ED11C0530110509F064
:100740009ACF8D8182708068382A832D90E09093B3
:10075000940380939303C7010F900F900F900F9015
:100760000F90DF91CF911F910F91FF90EF90DF904D
:10077000CF90BF90AF909F908F907F906F905F9041
:100780004F903F900C947202CF92DF92EF92FF92C3
:100790000F931F9300E010E021E040E050E060E0A4
:1007A00070E08091D3049091D4040E94310F6B01CA
:1007B0007C018CE591E00E94CA11C701B6010E943C
:1007C0000D1280E591E00E94CA118091D1049091B0
:1007D000D20420E1C21627E2D206E104F10440F07F
:1007E0001F910F91FF90EF90DF90CF900C94C1027A
:1007F000B6011F910F91FF90EF90DF90CF900C9476
:10080000E902BF92CF92DF92EF92FF920F931F9374
:10081000CF93DF937C018B01CB0189519C4F873FA4
:100820009A4218F0C7010E94DB0217FF06C011951B
:1008300001951109BB24B39404C00115110531F0D1
:10084000B12CC4E03AE0C32ED12C24C08FE390E059
:100850009093940380939303C3E03EC0ED2FF0E0A8
:10086000EE0FFF1FE557FC4FC801B6010E940F2095
:10087000DC01A95FBE4F8C9190E091838083C230F0
:1008800011F4CEEFCD0FC801B6010E940F208B01ED
:10089000672B41F0DC2FC150D53000F3C7010E9417
:1008A000DB02EDCFBB20C1F0EC2FC150E53020F0D2
:1008B000C7010E94DB0210C0F0E0EE0FFF1FE557FA
:1008C000FC4F80E490E09183808306C0C5303CF00B
:1008D000C7010E94DB02C150C7FD0AC0F7CFEC2F51
:1008E000F0E0EE0FFF1FE557FC4F11821082F3CFAF
:1008F000C701DF91CF911F910F91FF90EF90DF9093
:10090000CF90BF900C947202AF92BF92CF92DF92C1
:10091000EF92FF920F931F93CF93DF93CDB7DEB784
:1009200064970FB6F894DEBF0FBECDBF00E010E0B5
:1009300021E0AE014F5F5F4F60E070E08091D30433
:100940009091D4040E94310F6B017C018AE691E002
:100950000E94CA118E010F5F1F4F5E0125E1A20E9A
:10096000B11CF80161917191819191918F010E9467
:100970000D128EE491E00E94CA110A151B0589F739
:1009800080E591E00E94CA118091D1049091D20437
:10099000B701A60149515C4F6F4F7F4F473F5A4205
:1009A0006105710518F00E94C10203C0B6010E94E2
:1009B000010464960FB6F894DEBF0FBECDBFDF9181
:1009C000CF911F910F91FF90EF90DF90CF90BF904C
:1009D000AF900895CF92DF92EF92FF920F931F9303
:1009E000CF93DF9300D000D0CDB7DEB719821A8243
:1009F0001B821C8200E010E021E040E050E0BE01DC
:100A00006F5F7F4F8091D3049091D4040E94310F87
:100A10006B017C018BE691E00E94CA1169817A81A9
:100A20008B819C8146E00E94391280E591E00E9412
:100A3000CA11B701A60149515C4F6F4F7F4F80919A
:100A4000D1049091D204473F5A426105710518F0D4
:100A50000E94C10203C0B6010E9401040F900F90D2
:100A60000F900F90DF91CF911F910F91FF90EF901A
:100A7000DF90CF900895EF92FF920F931F93CF9343
:100A8000DF93E62EF42ECAE0D0E0CE010E94761F5E
:100A90008A3221F06AE2CE010E947E1F6E96C43631
:100AA000D10599F7C0E0D0E00E2D0C0F10E0C80181
:100AB0000E94761FF81629F06F2DC8010E947E1F34
:100AC000D1E0C25ECA3581F78D2FDF91CF911F91A2
:100AD0000F91FF90EF900895462FFC0164836EE024
:100AE0000C943B05462F2FEF260F2F3020F4DC010E
:100AF000ED91FC9165836DE00C943B050F931F9382
:100B0000CF93FC0182819381009771F0C62F8F01F2
:100B1000603110F40E947C014C2F6CE0C801CF9131
:100B20001F910F910C943B05CF911F910F91089548
:100B3000462FDC01ED91FC912FEF260F243610F0AB
:100B4000248101C0262F24836BE00C943B05AF92D7
:100B5000BF92CF92DF92EF92FF920F931F93CF93AA
:100B6000DF9300D000D0CDB7DEB76C01FC018081EF
:100B700091818B01FC0136964696DB014D915D918A
:100B80006D917D9141935193619371938E179F075E
:100B9000A9F788E1F82EF80181919191A191B19185
:100BA0008F0189839A83AB83BC83CE0101965C015C
:100BB000E12CF50141915F016F2D6E0DC6010E9480
:100BC0003B05E394F4E0EF12F4CFFF0E88E2F81255
:100BD000E2CF0F900F900F900F90DF91CF911F9168
:100BE0000F91FF90EF90DF90CF90BF90AF9008955E
:100BF000CF92DF92EF92FF920F931F93CF93DF93E9
:100C0000CDB7DEB760970FB6F894DEBF0FBECDBF8D
:100C10008E010F5F1F4F6E0181E1C80ED11C78015C
:100C20000E94B20E0E948F1CF80161937193819310
:100C300091938F010E941202882319F083E791E0BB
:100C40000CC00C151D0561F7B7018091CF04909180
:100C5000D0040E94A70584E891E00E94CA1180E5B3
:100C600091E00E94CA1160960FB6F894DEBF0FBEE5
:100C7000CDBFDF91CF911F910F91FF90EF90DF904B
:100C8000CF9008958F929F92AF92BF92CF92DF92B2
:100C9000EF92FF921F93CF93DF9300D000D0CDB798
:100CA000DEB76C017B01DC012D913C91FB01808161
:100CB0009181A281B381F901868B978BA08FB18F2F
:100CC000FB0184819581A681B781F901828F938F81
:100CD000A48FB58FFB0180819181A281B38189832B
:100CE0009A83AB83BC83CE0101965C014C0110E179
:100CF000D4014D914D01612FC6010E943B051F5F3C
:100D00001431B1F7F70184819581A681B781898378
:100D10009A83AB83BC83D5014D915D01612FC601E0
:100D20000E943B051F5F1831B1F70F900F900F9095
:100D30000F90DF91CF911F91FF90EF90DF90CF90B8
:100D4000BF90AF909F908F900895CF92DF92EF92D7
:100D5000FF920F931F93CF93DF93CDB7DEB7289702
:100D60000FB6F894DEBF0FBECDBF8E010F5F1F4FD1
:100D70006E0189E0C80ED11C78010E94B20E0E945B
:100D80008F1CF80161937193819391938F010E945D
:100D90001202882319F08FE891E00CC00C151D0594
:100DA00061F7B7018091CF049091D0040E94420670
:100DB0008CE991E00E94CA1180E591E00E94CA117D
:100DC00028960FB6F894DEBF0FBECDBFDF91CF914E
:100DD0001F910F91FF90EF90DF90CF9008950F93A8
:100DE0001F93CF93DF93CDB7DEB760970FB6F8941C
:100DF000DEBF0FBECDBF8C0162E00E9498056AE0A5
:100E0000C8010E947E056AE0C8010E94720561E087
:100E1000C8010E946C058AE0F80185834AE06FE012
:100E2000C8010E943B058BE897E8A1E8BFE38983EE
:100E30009A83AB83BC838FE19DEBA1ECBDEB8D83EB
:100E40009E83AF83B887BE016F5F7F4FC8010E944A
:100E5000420619821A821B821C821D821E821F82F8
:100E6000188683EA9BE8ACECB2E489879A87AB8763
:100E7000BC878AEB98E6A0E0B3EC8D879E87AF87AE
:100E8000B88BBE016F5F7F4FC8010E94A7056096B7
:100E90000FB6F894DEBF0FBECDBFDF91CF911F918B
:100EA0000F9108950F931F93CF93DF931F92CDB7A8
:100EB000DEB719828E010F5F1F4F21E040E050E046
:100EC000BC018EED94E00E94310F97FF11C0693193
:100ED0002CEF72072FEF820792072CF48CEF94E02F
:100EE0000E94C1020FC08CEF94E00E9401040AC06E
:100EF000603127E272078105910584F78CEF94E059
:100F00000E94E90280918B03998190FB87F990E020
:100F100090938C0380938B038CEF94E00E94720279
:100F20000F90DF91CF911F910F910895CF92DF9293
:100F3000EF92FF921F93CF93DF93182F6A017B01EB
:100F40000E94CE13DC01CB018C199D09AE09BF09AB
:100F5000813C9742A940B10508F43FC08CEF94E072
:100F60000E94CF02C3E7D6E020E030E040E050E04E
:100F700068E070E08CE093E00E94F70A86EE93E070
:100F80000E94EA08181619066CF48CEF94E00E948F
:100F9000C102DF91CF911F91FF90EF90DF90CF9032
:100FA0000C94CE13111148C00E94F5108111EDCFA1
:100FB00021971C161D06C4F264EF71E080E090E0FA
:100FC0000E94941320E030E040E050E06AE070E0DE
:100FD0008CE093E00E94F70AC7CF0E94CE13AB01CA
:100FE000BC014C195D096E097F0980910001413CEB
:100FF000544D6140710598F087FF23C0E091DA04F9
:10100000F091DB04309711F0808101C080E0809383
:10101000000161E08CEF94E00E947C0112C087FD2A
:1010200010C080312CF4682F8CEF94E00E947C017A
:101030008FEF8093000105C00E94F5108111B8CF99
:10104000A4CFC701B601DF91CF911F91FF90EF9020
:10105000DF90CF900895CF92DF92EF92FF920F939F
:101060001F93CF93DF936C017A018B01C0E0D0E036
:10107000CE15DF0581F0D8016D918D01D601ED917E
:10108000FC910190F081E02DC6010995892B11F0AA
:101090002196EECF7E01C701DF91CF911F910F9175
:1010A000FF90EF90DF90CF9008950E94222286EE6D
:1010B00093E00E94EA0821E0892B09F420E0822FC6
:1010C00008951F920F920FB60F9211242F933F9302
:1010D0004F935F936F937F938F939F93AF93BF9340
:1010E000EF93FF9386EE93E00E944F0AFF91EF91FA
:1010F000BF91AF919F918F917F916F915F914F9130
:101100003F912F910F900FBE0F901F9018951F9237
:101110000F920FB60F9211242F938F939F93EF93FB
:10112000FF93E091F603F091F7038081E091FC03D7
:10113000F091FD0382FD12C090818091FF038F5FCB
:101140008F7320910004821751F0E091FF03F0E0CB
:10115000EA51FC4F958F8093FF0301C08081FF917E
:10116000EF919F918F912F910F900FBE0F901F9035
:101170001895FC01538D448D252F30E0842F90E08D
:10118000821B930B541710F0CF9608950197089582
:10119000FC01918D828D981761F0828DDF01A80F7F
:1011A000B11D5D968C91928D9F5F9F73928F90E0A1
:1011B00008958FEF9FEF0895FC01918D828D981710
:1011C00031F0828DE80FF11D858D90E008958FEF4D
:1011D0009FEF0895FC01918D228D892F90E0805C16
:1011E0009F4F821B91098F739927089580E090E0AB
:1011F000892B29F00E94570881110C940000089552
:1012000085ED8093BC008091BC0084FDFCCF1092E2
:10121000C103089540916803262F30E0240F311D4B
:1012200021323105DCF42091C1032430C9F4FC01E2
:1012300080E090E0861758F4309168032191DC013A
:10124000A85BBC4FA30FB11D2C930196F3CF8091E7
:101250006803680F6093680380E0089581E0089553
:1012600082E00895089508950895E0911203809111
:101270001103E81730F4F0E0E85DFC4F808190E066
:1012800008958FEF9FEF08959091120380911103BD
:10129000981750F4E92FF0E0E85DFC4F208130E032
:1012A0009F5F9093120302C02FEF3FEFC901089593
:1012B0008091110390E020911203821B91090895FF
:1012C000CF92DF92EF92FF920F931F93CF93DF9312
:1012D0007C01CB018A012091C203222389F0EB011A
:1012E0006B01C40ED51ECC15DD0569F06991D701DF
:1012F000ED91FC910190F081E02DC7010995F3CFAC
:10130000642F0E940A09C801DF91CF911F910F91AC
:10131000FF90EF90DF90CF900895CF93DF931F92CF
:10132000CDB7DEB769832091C2032223D1F020918B
:10133000E503203240F021E030E0FC0133832283DA
:1013400080E090E015C08091C303E82FF0E0EC53FB
:10135000FC4F998190838F5F8093C3038093E50353
:1013600005C061E0CE0101960E940A0981E090E08B
:101370000F90DF91CF910895089580E090E0089557
:101380008091CF049091D0040E94EF068CE292E00D
:101390000E94CA1180E591E00C94CA1185E392E0A5
:1013A0000E94CA11E091D304F091D404648170E0EA
:1013B00080E090E04AE00E94CC1180E591E00C943E
:1013C000CA1182E492E00E94CA11E091CF04F09128
:1013D000D004658170E080E090E04AE00E94CC118A
:1013E00080E591E00C94CA118EE492E00E94CA114B
:1013F000E091D304F091D404658170E080E090E046
:101400004AE00E94CC1180E591E00C94CA1188E575
:1014100092E00E94CA11E091D104F091D20460815F
:1014200070E080E090E04AE00E94CC1180E591E01D
:101430000C94CA1187E692E00E94CA11E091CF0491
:10144000F091D004648170E080E090E00E940D1281
:1014500080E591E00C94CA11CF93DF930E94B20E05
:101460000E94931CEC010E94B20E892B71F4C230D1
:10147000D10558F46C2F61708091CF049091D00405
:101480000E946C0583E792E002C08EE792E00E9422
:10149000CA1180E591E0DF91CF910C94CA11FC0153
:1014A000848DDF01A80FB11DA35ABF4F2C91848DED
:1014B00090E001968F739927848FA689B7892C9322
:1014C000A089B1898C91837080648C93938D848D75
:1014D000981306C00288F389E02D80818F7D808378
:1014E0000895EF92FF920F931F93CF93DF93EC0138
:1014F00081E0888F9B8D8C8D981305C0E889F989D0
:10150000808185FD26C0F62E0B8D10E00F5F1F4FEA
:101510000F731127E02E8C8DE8120CC00FB607FC5C
:10152000FACFE889F989808185FFF5CFCE010E9445
:101530004F0AF1CF8B8DFE01E80FF11DE35AFF4FEB
:10154000F0829FB7F8940B8FEA89FB8980818062D3
:101550000AC09FB7F894EE89FF896083E889F9890A
:1015600080818370806480839FBF81E090E0DF9101
:10157000CF911F910F91FF90EF900895CF93DF933C
:10158000EC01888D8823C9F0EA89FB89808185FD7B
:1015900005C0A889B9898C9186FD0FC00FB607FCDC
:1015A000F5CF808185FFF2CFA889B9898C9185FF1D
:1015B000EDCFCE010E944F0AE7CFDF91CF91089582
:1015C0001F920F920FB60F9211248F930FB6F894BB
:1015D000A8958091600088618093600010926000FF
:1015E0000FBE8F910F900FBE0F901F901895411551
:1015F000510529F4EAE7F0E080818F7780836A3033
:101600007105A9F063FD02C088E001C088E267703F
:10161000682B88E10FB6F894A895809360000FBE00
:1016200060936000E0E6F0E0808180648083232B9B
:10163000A1F483B7817F846083BFF89483B781600E
:1016400083BF85B7806685BF8F7D85BF7894889579
:1016500083B78E7F83BF78940EC083B7817F846009
:1016600083BFF89483B7816083BF7894889583B7EC
:101670008E7F83BF7894452B29F4EAE7F0E08081E0
:101680008068808308951F920F920FB60F921124E5
:101690002F933F934F935F936F937F938F939F937A
:1016A000AF93BF93EF93FF938091B900887F80360B
:1016B00009F49CC068F5883209F45BC090F480316D
:1016C00009F454C038F4882309F4F6C0883009F4CA
:1016D0004DC0F6C0883109F44CC0803209F45DC0B9
:1016E000EFC0803409F468C048F4803309F455C071
:1016F000883309F0E5C08093BF03D8C0803509F472
:101700004FC0883509F45DC0883409F0D9C0D6C00F
:10171000883909F4C7C0A8F4883709F467C038F4D9
:10172000883609F463C0803709F460C0C9C08838BE
:1017300009F4B8C0803909F45FC0803809F0C0C02E
:101740005BC0803B09F486C038F4803A09F466C077
:10175000883A09F47FC0B4C0803C09F4A7C0883C33
:1017600009F4A4C0883B09F48AC0AAC080919C03F4
:1017700010C09091BE038091BD03981770F5E09161
:10178000BE0381E08E0F8093BE03F0E0E356FC4F72
:1017900080818093BB0085EC86C08093BF038EC0A0
:1017A000E091BE0381E08E0F8093BE038091BB0069
:1017B000F0E0E356FC4F80839091BE038091BD031F
:1017C0006EC0E091BE0381E08E0F8093BE038091D6
:1017D000BB00F0E0E356FC4F80838091C003811191
:1017E0006DC081E080939B0384EA61C083E08093B5
:1017F000C10310928A03CFCF80918A03803208F010
:1018000051C0E0918A0381E08E0F80938A0380911A
:10181000BB00F0E0E659FC4F8083BDCF85EC8093A0
:10182000BC001092C10380918A03803230F4E091B1
:101830008A03F0E0E659FC4F108260918A0370E061
:10184000E0910D03F0910E038AE693E00995109262
:101850008A0336C084E08093C1031092690310921A
:101860006803E0910F03F0911003099580916803DC
:10187000811105C081E08093680310924803E091D4
:10188000690381E08E0F80936903F0E0E85BFC4F11
:1018900080818093BB0090916903809168039817C1
:1018A00008F479CF85E88093BC000AC085EC80936A
:1018B000BC001092C10304C01092BF030E94000933
:1018C000FF91EF91BF91AF919F918F917F916F9118
:1018D0005F914F913F912F910F900FBE0F901F90EE
:1018E00018951F920F920FB60F9211240F931F930A
:1018F0002F933F934F935F936F937F938F939F9318
:10190000AF93BF932091840030918500B09B0BC0B2
:1019100081E086BB809126039091270301969093E6
:101920002703809326038091240390912503019639
:1019300040912203509123038417950798F1109248
:101940002503109224038091260390912703A0E0A1
:10195000B0E0DC0199278827820F931FA11DB11DDC
:1019600040911E0350911F03609120037091210349
:101970008C019D01041B150B260B370B00931A03DA
:1019800010931B0320931C0330931D0380931E03AD
:1019900090931F03A0932003B093210381E08093D1
:1019A000190304C09093250380932403BF91AF9142
:1019B0009F918F917F916F915F914F913F912F9167
:1019C0001F910F910F900FBE0F901F901895CF93FE
:1019D000DF93EC0160E070E0CB010E9494136C8116
:1019E00070E088EE93E00E940F206115710509F404
:1019F00074C01092250310922403109227031092B2
:101A0000260310921E0310921F03109220031092BF
:101A10002103109219038091800080931803809114
:101A20008100809317031092810010928000109221
:101A300085001092840081E086BB10926F00809137
:101A4000B000809316038091B1008093150310922B
:101A5000B10082E08093B000CB0187709927892B79
:101A600051F423E0769567952A95E1F78CE780930A
:101A7000B30087E018C0CB0183709927892B31F41C
:101A8000769567957695679589EF05C060FD07C0E7
:101A9000769567958CE78093B30086E004C08CE769
:101AA0008093B30085E08093140382E087BB10929B
:101AB000B20070932303609322039FB7F89483BD11
:101AC000209114032093B100809370008BE081502B
:101AD000F1F787E0809381009FBF809119038823ED
:101AE000E1F31092B1001092700080911603809380
:101AF000B000809115038093B10010928100809115
:101B000018038093800080911703809381008FB722
:101B1000F89420911A0330911B0340911C035091BB
:101B20001D03109219038FBFAC81B0E00E94BE1F4D
:101B3000DF91CF910895CF93DF93EC0160E08A812C
:101B40000E940B1360E08B810E940B1360E089817F
:101B50000E940B1360E08881DF91CF910C940B13EE
:101B6000CF92DF92EF92FF920E94B20E4AE050E0D5
:101B700060E070E00E94791B6B017C010E94591E9D
:101B80000E941202882319F08FE892E013C08FEFB1
:101B9000C816D104E104F10409F0B0F78091CF0434
:101BA0009091D004FC01C5824C2D6FE00E943B0552
:101BB00080EA92E00E94CA1180E591E0FF90EF90E8
:101BC000DF90CF900C94CA11CF92DF92EF92FF92E8
:101BD0000E94B20E4AE050E060E070E00E94791B83
:101BE0006B017C010E94591E0E941202882319F089
:101BF0008BEA92E012C0D701C6010197A109B10991
:101C00000F97A105B105A0F76C2D8091CF0490919D
:101C1000D0040E94720586EF91E00E94CA1180E50F
:101C200091E0FF90EF90DF90CF900C94CA11CF928B
:101C3000DF92EF92FF920E94B20E4AE050E060E025
:101C400070E00E94791B6B017C010E94591E0E946A
:101C50001202882319F08AEB92E013C0D701C60163
:101C60000197A109B10984369105A105B10598F73D
:101C70006C2D8091CF049091D0040E9498058CEC3B
:101C800092E00E94CA1180E591E0FF90EF90DF9012
:101C9000CF900C94CA11CF92DF92EF92FF920E94E4
:101CA000B20E4AE050E060E070E00E94791B6B01E8
:101CB0007C010E94591E0E941202882319F088EDAF
:101CC00092E00FC080E1C816D104E104F104B8F736
:101CD0006C2D8091CF049091D0040E947E058CEEF3
:101CE00092E00E94CA1180E591E0FF90EF90DF90B2
:101CF000CF900C94CA11EF92FF920F931F93CF9342
:101D0000DF937C018B01CFE8D4E08A8190E00196DB
:101D10002BE0289FB001299F700D112488819981A3
:101D20000E945C21998388832A8148E050E0B701B2
:101D30003BE0239F800D911D11240E944E228A8139
:101D4000E881F9819BE0899FE00DF11D1124128744
:101D500001878F5F8A83DF91CF911F910F91FF9051
:101D6000EF9008954BEC54E064E974E080E090E07B
:101D70000C94BA1C682F83E894E00C948D09309180
:101D8000E503313208F04BC08091C1038111FCCFD3
:101D90009091E40322E02093C10321E02093C0034B
:101DA0002FEF2093BF031092BE033093BD03E4ECEA
:101DB000F3E0ADE9B3E020E0321721F041914D931B
:101DC0002F5FFACF10929C0320919C03990F922BC6
:101DD00090939C0390919B03913061F410929B032C
:101DE00090919C039093BB009091BC0093FDF8CF21
:101DF00095EC01C095EE9093BC009091C103923098
:101E0000E1F39091BF039F3F79F08091BF0380324F
:101E100041F08091BF03803331F084E005C081E060
:101E200003C082E001C083E01092C3031092E50377
:101E30001092C2030895EBE8F3E089E390E0918308
:101E4000808387E790E09383828388E390E09783A1
:101E500086838BE590E0918780878CEF94E00C94EB
:101E600072022F923F924F925F926F927F928F9267
:101E70009F92AF92BF92CF92DF92EF92FF920F9319
:101E80001F93CF93DF93CDB7DEB76A970FB6F89461
:101E9000DEBF0FBECDBF7C011B016A01B22EAE01B9
:101EA0004F5F5F4F5E8B4D8BCE014596FA011192CD
:101EB0001192119211928E179F07C9F78091D50444
:101EC0009091D604009711F00E94CF0261E0D701F3
:101ED0008C910E940B13BB2029F061E0F7018181F6
:101EE0000E940B1361E070E080E090E00E94941388
:101EF000D70115968C91159780FF11C061E012965D
:101F00008C910E940B1360E0F70183810E940B13F8
:101F1000C7010E94E70C69837A838B839C83D70176
:101F200015968C91159781FF22C060E012968C91D6
:101F30000E940B1360E0F70183810E940B13D7010D
:101F40001496BC908B2D90E0880F991F85369105D3
:101F500014F084E690E0F7018483C7010E94E70C47
:101F60006D837E838F839887D7011496BC92F70187
:101F7000858183FF11C060E082810E940B1361E0C4
:101F8000D70113968C910E940B13C7010E94E70C96
:101F90006D877E878F87988BF701858182FF11C0BF
:101FA00061E082810E940B1361E0D70113968C914E
:101FB0000E940B13C7010E94E70C69877A878B8701
:101FC0009C87C7010E949B0D8D849E84AF84B88836
:101FD00081149104A104B10409F4CFC06D817E8104
:101FE0008F8198850E94591E2B013C01C501B401C7
:101FF0000E94591E9B01AC01C301B2010E94AA209C
:10200000F70126893789408D518D0E94B81ED7016E
:102010005A962D913D914D915C915D970E943E2085
:102020004B015C012114310409F44EC0F1014080E0
:1020300051806280738020E030E0A901C301B201C9
:102040000E94521E882309F43FC0A3019201C501DA
:10205000B4010E943D206F8B788F898F9A8F20E08A
:1020600030E0A9010E94522118166CF428E539E3EA
:1020700044E35DE36F89788D898D9A8D0E94521EAD
:1020800087FD0DC021C028E539E344E35DEB6F898E
:10209000788D898D9A8D0E9452211816ACF4A30177
:1020A0009201C501B4010E943E2020E030E040E0F2
:1020B0005FE30E94B81E4B015C010115110549F058
:1020C00081E0D8018C9305C00115110511F0F801CC
:1020D0001082D70116962D913D914D915C911997E3
:1020E000C501B4010E94B81EA50194010E94B81E4A
:1020F000A50194010E94B81E2B013C01F701228525
:10210000338544855585C501B4010E94B81EA501DB
:1021100094010E94B81E9B01AC01C301B2010E9450
:102120003E202B013C01D7011E962D913D914D91F2
:102130005C915197C501B4010E94B81E9B01AC018E
:10214000C301B2010E943E20F701228933894489EC
:1021500055890E943E2020E030E040E05FE30E948D
:102160003E200E941C212114310459F0D1018D928E
:102170009D92AD92BC92139704C06FEF7FEF8FEFEB
:102180009FEFC114D104C1F0F6019E012F5E3F4FB5
:10219000AD89BE898D909D90AD90BD90BE8BAD8B6D
:1021A00081929192A192B1922A173B0789F7F60189
:1021B000608B718B828B938B6A960FB6F894DEBF1F
:1021C0000FBECDBFDF91CF911F910F91FF90EF9088
:1021D000DF90CF90BF90AF909F908F907F906F9047
:1021E0005F904F903F902F900895CF92DF92EF92A3
:1021F000FF92CF93C091E20484E68093E20460E012
:102200008091DF040E940B1361E08091DE040E9444
:102210000B1361E08091E0040E940B1360E0809159
:10222000E1040E940B1361E070E080E090E00E9406
:1022300094138EED94E00E94E70C6B017C018EED0F
:1022400094E00E949B0DC093E20481E098ECC916D3
:10225000D104E104F10408F480E0CF91FF90EF9005
:10226000DF90CF9008953FB7F89480910205909148
:102270000305A0910405B091050526B5A89B05C0EE
:102280002F3F19F00196A11DB11D3FBFBA2FA92FF5
:10229000982F8827820F911DA11DB11DBC01CD0172
:1022A00042E0660F771F881F991F4A95D1F708955E
:1022B000009769F0FC0101900020E9F73197AF0128
:1022C000481B590BBC0186EE93E00C942B0880E070
:1022D00090E00895AF92BF92CF92DF92EF92FF927B
:1022E0000F931F93CF93DF9300D01F92CDB7DEB72C
:1022F000C82E8E010F5F1F4F5801D12C78018C2DF5
:102300008D0D90E00E94761FF50181935F01FEE143
:10231000DF0E8AE5D812F3CF20E030E090E0992379
:1023200041F0F8014081F701E30FF11D808148176A
:1023300089F0F801408181E05981541380E05A818D
:10234000451301C08F5F5B81451301C08F5F281764
:1023500008F49C019F5F0F5F1F4F933001F7F70157
:10236000E30FF11D1081233031F0412F6C2D88EDEA
:1023700094E00E943B05812F0F900F900F90DF910A
:10238000CF911F910F91FF90EF90DF90CF90BF9072
:10239000AF9008950C9458118F929F92AF92BF9274
:1023A0000F931F93CF93DF93CDB7DEB7A1970FB6EF
:1023B000F894DEBF0FBECDBF19A2423008F44AE048
:1023C0008E010F5D1F4F842E912CA12CB12CA501E5
:1023D00094010E949C1FE62FB901CA010150110906
:1023E000EA3014F4E05D01C0E95CD801EC93232BE2
:1023F000242B252B61F7C8010E945811A1960FB616
:10240000F894DEBF0FBECDBFDF91CF911F910F912A
:10241000BF90AF909F908F900895CF92DF92EF92F0
:10242000FF92CF93DF9397FF1BC06B017C016DE29E
:1024300086EE93E00E94710AEC0166277727CB01B4
:102440006C197D098E099F094AE00E94CC118C0FFE
:102450009D1FDF91CF91FF90EF90DF90CF90089577
:102460004AE0DF91CF91FF90EF90DF90CF900C94F6
:10247000CC118F929F92AF92BF92CF92DF92EF9248
:10248000FF920F931F93CF93DF936B017C01142F67
:102490009B01AC010E945721882319F080E093E052
:1024A00027C046015701E894B7F82FEF3FEF4FE7F9
:1024B0005FE7C501B4010E94572181110DC02FEFC4
:1024C0003FEF4FE75FE7C501B4010E94521E1816A7
:1024D0001CF484E093E00CC02FEF3FEF4FE75FE484
:1024E000C701B6010E945221181684F488E093E0D7
:1024F000DF91CF911F910F91FF90EF90DF90CF90E0
:10250000BF90AF909F908F900C9458112FEF3FEF9A
:102510004FE75FECC701B6010E94521E87FDE6CF70
:1025200020E030E0A901C701B6010E94521E87FFDA
:102530000BC06DE286EE93E00E94710AEC01F7FA9F
:10254000F094F7F8F09402C0C0E0D0E000E060E062
:1025500070E080E09FE3101741F020E030E040E2BF
:1025600051E40E94AA200F5FF6CFA70196010E94B6
:102570003E206B017C010E9423214B015C014AE05B
:102580000E94CC11C80FD91F1123B9F1C501B401A4
:102590000E94571E9B01AC01C701B6010E943D205D
:1025A0006B017C016EE286EE93E00E94710AC80F17
:1025B000D91F20E030E040E251E4C701B6010E949B
:1025C000B81E4B015C010E9423216B01E12CF12C10
:1025D0004AE0C701B6010E94CC11C80FD91FC7013C
:1025E000B6010E94571E9B01AC01C501B4010E94B7
:1025F0003D206B017C011150E1F6CE01DF91CF91BE
:102600001F910F91FF90EF90DF90CF90BF90AF9010
:102610009F908F90089590E0FC01E152FF4F24912C
:10262000FC01E553FF4F3491FC01E954FF4FE49165
:10263000EE2309F43CC0222339F1233091F038F421
:102640002130A9F0223001F584B58F7D12C02730EA
:1026500091F02830A1F02430B9F4809180008F7D72
:1026600003C0809180008F77809380000DC084B577
:102670008F7784BD09C08091B0008F7703C08091AF
:10268000B0008F7D8093B000F0E0EE0FFF1FE355A8
:10269000FF4FA591B4919FB7F894611104C08C913C
:1026A0003095382302C0EC913E2B3C939FBF089598
:1026B000CF93DF9390E0FC01E553FF4F2491FC01A1
:1026C000E954FF4F8491882361F190E0880F991FAE
:1026D000FC01ED55FF4FC591D491FC01E355FF4F2F
:1026E000A591B491611109C09FB7F8948881209594
:1026F00082238883EC912E230BC0623061F49FB754
:10270000F8948881322F309583238883EC912E2B87
:102710002C939FBF06C08FB7F894E8812E2B288397
:102720008FBFDF91CF9108958F929F92AF92BF920A
:10273000CF92DF92EF92FF926B017C010E943311E6
:102740004B015C01C114D104E104F104F1F00E94D9
:102750003311DC01CB0188199909AA09BB09883E0C
:102760009340A105B10570F321E0C21AD108E10838
:10277000F10888EE880E83E0981EA11CB11CC114DC
:10278000D104E104F10419F7DDCFFF90EF90DF9061
:10279000CF90BF90AF909F908F9008952FB7F894EF
:1027A0006091FE047091FF048091000590910105F5
:1027B0002FBF08951F920F920FB60F9211242F93DF
:1027C0003F938F939F93AF93BF938091FE0490911B
:1027D000FF04A0910005B09101053091FD0423E0B4
:1027E000230F2D3720F40196A11DB11D05C026E849
:1027F000230F0296A11DB11D2093FD048093FE04BA
:102800009093FF04A0930005B09301058091020509
:1028100090910305A0910405B09105050196A11DB5
:10282000B11D8093020590930305A0930405B09316
:102830000505BF91AF919F918F913F912F910F907F
:102840000FBE0F901F901895CF93DF93CDB7DEB7D3
:102850006C970FB6F894DEBF0FBECDBF789484B5E9
:10286000826084BD84B5816084BD85B5826085BD8C
:1028700085B5816085BD80916E00816080936E001A
:10288000109281008091810082608093810080910C
:1028900081008160809381008091800081608093BD
:1028A00080008091B10084608093B1008091B0007D
:1028B00081608093B00080917A00846080937A0078
:1028C00080917A00826080937A0080917A008160A2
:1028D00080937A0080917A00806880937A001092C9
:1028E000C10010E060E0812F0E94581360E0812F4A
:1028F0000E940B131F5F1631A9F780917E008F6332
:1029000080937E0080916400816080936400809158
:1029100064008460809364001CBC61E08DE00E94D0
:10292000581361E08DE00E940B13E091F603F091E3
:10293000F70382E08083E091F203F091F3031082C9
:10294000E091F403F091F50380E180831092FE039F
:10295000E091FA03F091FB0386E08083E091F803B5
:10296000F091F903808180618083E091F803F09118
:10297000F903808188608083E091F803F091F90386
:10298000808180688083E091F803F091F903808171
:102990008F7D80836FE972E083EA91E00E947B0E75
:1029A00064EC73E084EB91E00E947B0E6AEE74E0CD
:1029B0008BEA91E00E947B0E64E874E08AEA91E081
:1029C0000E947B0E65E371E082EB91E00E947B0E3A
:1029D00065EA76E08CE991E00E947B0E61EF70E0A1
:1029E00089EB91E00E947B0E68EF75E080EC91E04E
:1029F0000E947B0E65EA70E089EC91E00E947B0EFC
:102A00006BE47EE082ED91E00E947B0E67E07AE06D
:102A10008BED91E00E947B0E67E17EE084EE91E019
:102A20000E947B0E6EEC79E08DEE91E00E947B0EB1
:102A300064EE7DE086EF91E00E947B0E64EF79E02A
:102A40008FEF91E00E947B0E6CE27AE088E092E0EA
:102A50000E947B0E6AE17AE081E192E00E947B0EA7
:102A600060EB7DE08AE192E00E947B0E61EE79E00E
:102A700083E292E00E947B0E60EC79E08CE292E0CF
:102A80000E947B0E0E94900180E7809313031092B6
:102A90001203109211031092C3031092E5031092D7
:102AA000C10311E01093C00310929B0361E082E127
:102AB0000E940B1361E083E10E940B138091B90027
:102AC0008E7F8093B9008091B9008D7F8093B9008B
:102AD00088E48093B80085E48093BC0082E399E0A9
:102AE0009093100380930F0383E399E090930E0378
:102AF00080930D03009113031093C2030093E4032A
:102B00001092C3031092E50381E290E00E94BA0E96
:102B10000E94BF0E1093C2030093E4031092C303FC
:102B20001092E50381E890E00E94BA0E0E94BF0E69
:102B30001093C2030093E4031092C3031092E503C1
:102B40008FEE90E00E94BA0E0E94BF0E8CEF94E0D0
:102B50000E94CF0261E08091E0040E94581361E07E
:102B60008091E1040E94581361E08091DF040E948B
:102B7000581361E08091DE040E9458138EED94E0BA
:102B80000E949B0D8AE00E946A118A3209F0E1C01E
:102B90008BE00E946A11853610F062E001C0682F58
:102BA00088ED94E00E9498058091DA049091DB040E
:102BB000892B61F08CE00E946A11803110F06AE08C
:102BC00001C0682F88ED94E00E947E058DE00E9490
:102BD0006A119FEF980F9F3010F06AE001C0682FD4
:102BE00088ED94E00E9472058EE00E946A1161E017
:102BF0008F3F19F0811101C060E088ED94E00E94E0
:102C00006C058FE00E946A118F3F99F48AE08093EF
:102C1000DD044AE06FE088ED94E00E943B059E01F0
:102C20002F5F3F4F79018901BB24B39480E13901C3
:102C300025C08093DD04482FEDCF99249394980EFE
:102C40000E946A11F60181936F018F3F09F0B12C48
:102C5000892DA812F2CF2D883E884F88588CC2014A
:102C6000B1010E941202811112C0F8012192319229
:102C7000419251928F018A2D883139F0F4E0AF2EC4
:102C8000A80EFE0175966F01E4CFBB2081F08BE8A2
:102C900097E8A1E8BFE389839A83AB83BC838FE184
:102CA0009DEBA1ECBDEB8D839E83AF83B887B7010D
:102CB00088ED94E00E94420601E018E1E4E0AE2EC7
:102CC000A10E9E012B5E3F4F69011A1571F0BB24C6
:102CD000B394B10E812F0E946A11F60181936F01A6
:102CE0008F3F09F000E01B2DF0CF8D889E88AF88C4
:102CF000B88CC501B4010E9412028823C9F0198260
:102D00001A821B821C821D821E821F82188683EA01
:102D10009BE8ACECB2E489879A87AB87BC878AEBE7
:102D200098E6A0E0B3EC8D879E87AF87B88B0BC089
:102D3000F70181929192A192B1927F01183209F02C
:102D4000BDCF0111DCCFB30188ED94E00E94A7054F
:102D500004C088ED94E00E94EF060FE710E01093A6
:102D60008C0300938B0310928E0310928D031092AC
:102D700092031092910310929403109293038CEF9C
:102D800094E00E9472026AEF70E080E090E00E949E
:102D9000941310928C0310928B0310938E03009364
:102DA0008D0310929203109291031092940310924B
:102DB00093038CEF94E00E9472026AEF70E080E06F
:102DC00090E00E94941310928C0310928B03109247
:102DD0008E0310928D03109392030093910310922F
:102DE0009403109293038CEF94E00E9472026AEFB6
:102DF00070E080E090E00E94941310928C03109297
:102E00008B0310928E0310928D03109292031092F6
:102E1000910310939403009393038CEF94E00E942A
:102E200072026AEF70E080E090E00E94941360E02C
:102E30008DE00E940B1360E08DE00E9458130E9409
:102E4000F510811186C08091DC04882309F47CC0D0
:102E50001091E20484E68093E2048091D50490917D
:102E6000D604009711F00E94CF0261E08091DE0449
:102E70000E940B1361E08091DF040E940B1361E05C
:102E800070E080E090E00E94941360E08091E004A4
:102E90000E940B1360E08091E1040E940B138EED01
:102EA00094E00E94E70C4B015C0160E08091E0043B
:102EB0000E940B1361E08091E1040E940B138EEDE0
:102EC00094E00E94E70C6B017C018EED94E00E947F
:102ED0009B0D1093E204F9E28F16FAE09F06A1041D
:102EE000B10444F02CE5821622E19206A104B1045B
:102EF00074F02AC088E29AE0A0E0B0E0881999094D
:102F0000AA09BB0984339840A105B105ECF481E41A
:102F1000C81686E0D806E104F10444F09CE1C91625
:102F20009CE0D906E104F1047CF4A1C180E496E0C0
:102F3000A0E0B0E08C199D09AE09BF098C3D954019
:102F4000A105B1050CF493C180E090E00E94520706
:102F500004C08CEF94E00E94CF0219821A821B8277
:102F60001C82812C912C5401EE24E394F12C68E016
:102F7000C62ED12C70E2272E312C0091DD0424E6E0
:102F8000029F800111240E949001882321F00E9459
:102F9000CE134B015C010E94F510882309F43CC15B
:102FA0000E94CE134B015C018EE390E090938C0362
:102FB00080938B0383E790E090938E0380938D033F
:102FC0001092920310929103109294031092930323
:102FD0008CEF94E00E947202B501A40181E00E948E
:102FE00096072B013C014801012E000CAA08BB08E2
:102FF0000E94F5108823A1F0C501B4010E9494132A
:103000000E949001882321F00E94CE132B013C01E5
:10301000B301A20181E00E9496072B013C01E8CF99
:1030200068EE73E080E090E00E94941342E0A42EEA
:10303000B12CF0928C03E0928B038CEF94E00E9411
:10304000720269E270E080E090E00E9494131092B6
:103050008C0310928B03F0928E03E0928D038CEF21
:1030600094E00E94720269E270E080E090E00E94C9
:10307000941310928E0310928D03F0929203E092BB
:1030800091038CEF94E00E94720269E270E080E0AC
:1030900090E00E9494131092920310929103F09288
:1030A0009403E09293038CEF94E00E94720269E231
:1030B00070E080E090E00E94941382E090E09093B2
:1030C0009403809393038CEF94E00E94720269E270
:1030D00070E080E090E00E949413E4E0F0E0F09370
:1030E0009403E09393038CEF94E00E94720269E2F0
:1030F00070E080E090E00E949413D0929403C0921C
:1031000093038CEF94E00E94720269E270E080E029
:1031100090E00E9494131092940310929303D09223
:103120009203C09291038CEF94E00E94720269E2D4
:1031300070E080E090E00E9494131092920310924D
:103140009103D0928E03C0928D038CEF94E00E9485
:10315000720269E270E080E090E00E9494131092A5
:103160008E0310928D03D0928C03C0928B038CEF50
:1031700094E00E94720269E270E080E090E00E94B8
:10318000941320E130E030938C0320938B038CEF79
:1031900094E00E94720269E270E080E090E00E9498
:1031A000941330928C0320928B038CEF94E00E9456
:1031B000720269E270E080E090E00E94941331E0D6
:1031C000A31AB10809F035CF8CEF94E00E94CF022A
:1031D00064E670E080E090E00E9494130E94CE13B9
:1031E000DC01CB0184199509A609B709813A9F40F2
:1031F000A105B10520F019821A821B821C82CE0122
:1032000001960E9452070E94CE13AB01BC0180E0E0
:103210000E9496074B015C01B801110F880B990BB6
:103220000E9494130E94CE13DC01CB0188199909E6
:10323000AA09BB09813A9F40A105B10580F0198216
:103240001A821B821C8280918B038F7790E090936F
:103250008C0380938B038CEF94E00E947202B50183
:10326000A40180E00E9496074B015C0186CE8CEFA2
:1032700094E00E94CF0289E3E82EF12CF0928C03B7
:10328000E0928B0397E7C92ED12CD0928E03C09287
:103290008D0328E3A22EB12CB0929203A092910349
:1032A00036E0832E912C90929403809293038CEFBE
:1032B00094E00E94720264EF71E080E090E00E946E
:1032C000941300E010E021E0AE014F5F5F4F60E03B
:1032D00070E08EED94E00E94310F0E949001811108
:1032E0003CCEF0928C03E0928B03D0928E03C0927E
:1032F0008D03B0929203A0929103909294038092D6
:1033000093038CEF94E00E94720264EF71E080E01E
:1033100090E00E9494130E94900181111ECE6D8155
:103320007E818F8198850E94591E4B015C016D85BD
:103330007E858F8598890E94591E2B013C0120E0D3
:1033400030E842E255E4C501B4010E943D206B0122
:103350007C0120E030E0A9010E94522118165CF4A3
:1033600020E030E443E055E4C701B6010E94521E5C
:1033700087FD0CC009C120E030E443E055ECC701F3
:10338000B6010E94522118160CF0FEC020E030E079
:1033900048EC54E4C301B2010E943D206B017C0162
:1033A00020E030E0A9010E94522118165CF420E0D0
:1033B00030E84BEB54E4C701B6010E94521E87FD72
:1033C0000CC0E2C020E030E84BEB54ECC701B60182
:1033D0000E94522118160CF0D7C0A3019201C5011A
:1033E000B4010E94AA202B013C01C090DD04F4E648
:1033F000CF9E600111240E941B0F46010D2C000C72
:10340000AA08BB080E94F510382E811109C0C50119
:10341000B4010E9494130E949001882399F39DCDDA
:103420008EE390E090938C0380938B0383E790E08E
:1034300090938E0380938D031092920310929103C8
:1034400010929403109293038CEF94E00E94720206
:103450000D2C000CEE08FF080E94F510882349F09F
:10346000C701B6010E9494130E9490018823A1F322
:1034700074CD0E941B0F64EF71E080E090E00E9429
:10348000941300E010E021E0AE014F5F5F4F60E079
:1034900070E08EED94E00E94310F0E949001811146
:1034A0005CCD0E941B0F64EF71E080E090E00E9411
:1034B00094130E949001811150CD6D817E818F8186
:1034C00098850E94591E6B017C016D857E858F85D4
:1034D00098890E94591E9B01AC01C701B6010E9448
:1034E000AA20A30192010E943D209B01AC016DEC3A
:1034F0007CEC8CE090E40E94AA209B01AC016D8BD7
:103500007E8B8F8B988FC301B2010E94B81E9B01E6
:10351000AC0160E070E080EC9FE30E943D20698F89
:103520007A8F8B8F9C8F0E949001811116CDBE01E6
:103530006B5E7F4F88ED94E00E9442066AE070E087
:1035400080E090E00E949413332009F406CD8EE5CC
:1035500090E090938C0380938B038FE390E09093A3
:103560008E0380938D0384E590E090939203809383
:10357000910389E790E090939403809393038CEFF9
:1035800094E00E947202E9CC8CEF94E00E94DB028E
:1035900068EB7BE080E090E00E949413DECCCF9358
:1035A000DF93E6EEF3E01382128288EE93E0A0E070
:1035B000B0E084839583A683B78322E231E0318330
:1035C000208325EC30E03587248724EC30E03787F2
:1035D000268720EC30E0318B208B21EC30E0338BE0
:1035E000228B22EC30E0358B248B26EC30E0378BBD
:1035F000268B118E128E138E148EE3E8F4E0138264
:10360000128284839583A683B78384E391E09183B8
:103610008083CFE8D4E0198218821A821C821B8230
:103620008AE08F831DAE1CAE6EE471E084E994E005
:103630000E94392218861BAEEEEDF4E082E0808312
:1036400083E0818397E0928396E0938384838FE085
:1036500085838CEF94E09093D6048093D5044BE857
:1036600057E861E87FE3468B578B608F718F4FE19E
:103670005DEB61EC7DEB428F538F648F758F16820B
:10368000178210861186128613861486158643EAE1
:103690005BE86CEC72E446875787608B718B4AEB72
:1036A00058E660E073EC428B538B648B758BA8ED0E
:1036B000B4E01196FC93EE9313969C938E9312971D
:1036C00021E014962C931497F093D404E093D30440
:1036D0009093D2048093D104B093D004A093CF04EC
:1036E0008AEF92E09093CE048093CD04DF91CF9146
:1036F0000895A0E0B0E0EFE7FBE10C94CA1F5C0185
:103700006B017A016115710519F0FB0191838083CA
:10371000E114F10429F0C7010297839708F0E5C08E
:10372000E5012196F5011081812F90E00E94B11CE6
:10373000892B11F05E01F4CF1D3229F42196F50199
:10374000118101E007C01B3221F4E5012296F50149
:10375000118100E0E114F10409F1F0E1EF16F10448
:1037600029F43FC010E3E114F10421F128E0E2164E
:10377000F10401F154F4E2E0EE16F10421F5812C9C
:10378000912CA12CB0E4BB2E3EC0FAE0EF16F10460
:1037900039F020E1E216F104B1F430C0103319F130
:1037A000FAE0EF2EF12CACEC8A2E982CA82CACE091
:1037B000BA2E29C078E0E72EF12C812C912CA12C77
:1037C000E0E1BE2E20C060E070E080E090E897016C
:1037D0000F2C000C440B550B0E949C1F49015A01F1
:1037E00012C0103359F488818F7D883509F0BACF23
:1037F00019812296026080E1E82EF12C812C912C17
:10380000A12C68E0B62E40E060E070E0CB0127011B
:103810000F2C000C66087708FE0150ED352E310E96
:1038200029E0231570F42FEB210F2A3118F439EC1D
:10383000332E06C02FE9210F2A3118F529EA322E3E
:10384000310E232D30E02E153F05DCF447FD16C068
:1038500086169706A806B90670F0A30192010E9489
:103860008C1F630D711D811D911D613071058105D6
:1038700020E8920710F04FEF01C041E0219610813F
:10388000CBCF202F2170C114D10471F0442329F033
:103890002197F601D183C08307C001FF19C0229789
:1038A000F601D183C08314C047FF12C0222329F040
:1038B00060E070E080E090E804C06FEF7FEF8FEF92
:1038C0009FE722E230E0309307052093060509C008
:1038D000222381F090958095709561957F4F8F4F51
:1038E0009F4F462F372F282F12C040E030E020E0B6
:1038F00090E00DC097FFF5CF82E290E0909307052E
:10390000809306056FEF7FEF8FEF9FE7EACF642F7D
:10391000732F822FCDB7DEB7E1E10C94E61F662747
:1039200077270C94E91CFC0188279927E8942191BA
:103930002032E9F3293010F02E30C8F32B3241F059
:103940002D3239F4689404C00E94E11C820F911D4D
:10395000219120532A30C0F31EF4909581959F4FFA
:10396000089591110C94371E803219F089508550BA
:10397000C8F70895FA01A191B081009719F4109742
:10398000E1F0CD01DC01CD010D90002011F4C0016A
:1039900013C0FB012191222319F02015D9F7F3CF91
:1039A000FB012191201519F41E92119606C02223C5
:1039B000C1F70D900020A1F7D001FA01A193B083C7
:1039C00008957AE0979F902D879F802D910D112467
:1039D0000895A0E0B0E0EFEEFCE10C94CF1FEC0105
:1039E0006B016115710519F0FB01918380837E01E4
:1039F000FFEFEF1AFF0A0881802F90E00E94B11CB0
:103A0000892B11F0E701F3CF0D3239F47E0182E00A
:103A1000E80EF11C098111E008C00B3229F47E0187
:103A200092E0E90EF11C098110E0E701219743E0E3
:103A300050E060E770E0CE010E943A1E892BC1F48D
:103A4000239645E050E06BE670E0CE010E943A1EFE
:103A5000892B09F42596C114D10419F0F601D183FC
:103A6000C0831111F6C060E070E080E89FE7FAC003
:103A700043E050E068E670E0CE010E943A1E892BD8
:103A800059F4C114D10409F4E9C0F2E0EF0EF11CBD
:103A9000F601F182E082E2C020E030E0A901C0E05E
:103AA000D0E0F70180EDA82EA00E89E08A1530F154
:103AB000912F9260B92E812F887012FF04C081115E
:103AC00024C0219622C081112197A5E0B0E00E9478
:103AD000BE1FDC01CB01880F991FAA1FBB1F9C01D1
:103AE000AD012A0D311D411D511D283989E93807C5
:103AF000480789E1580748F0166006C09EEFA912F2
:103B00000AC013FD40C01860B12E8FEFE81AF80A02
:103B100000811B2DC6CF802F8F7D8534A1F580813C
:103B20008D3211F4106106C08B3221F0319661E0C4
:103B300070E004C08181329662E070E080538A3088
:103B400018F0E61BF70B1FC060E070E060389CE0E7
:103B500079075CF4DB01AA0FBB1FAA0FBB1F6A0F1A
:103B60007B1F660F771F680F711D3196DF0111975C
:103B70008C9180538A3050F314FF03C07195619586
:103B80007109C60FD71F11FF08C0C114D10429F055
:103B9000CF010197F60191838083CA01B9010E9488
:103BA000571E212F2370233019F04B015C0106C0F2
:103BB0004B015C01B7FAB094B7F8B09420E030E064
:103BC000A901C501B4010E94521E882309F43EC018
:103BD000D7FF06C0D195C195D10907E810E002C012
:103BE0000FE910E06801F8E1CF1AD10890E2E92E60
:103BF000F12CCE15DF0574F0F80125913591459132
:103C00005491C501B4010E94B81E4B015C01CE194C
:103C1000DF09EFCF04501109F594E7940C151D0549
:103C200041F78A2D880F8B2D881F8F3F49F020E0A8
:103C300030E0A901C501B4010E94521E811106C0E5
:103C400082E290E09093070580930605C501B401D8
:103C500009C060E070E080E89FEF04C060E070E0C1
:103C600080EC9FE7CDB7DEB7ECE00C94EB1F992713
:103C700088270895FB01DC014150504088F08D9168
:103C800081341CF08B350CF4805E659161341CF03E
:103C90006B350CF4605E861B611171F3990B08950E
:103CA000881BFCCF0E94941E08F481E00895E894DC
:103CB00009C097FB3EF490958095709561957F4F74
:103CC0008F4F9F4F9923A9F0F92F96E9BB27939522
:103CD000F695879577956795B795F111F8CFFAF432
:103CE000BB0F11F460FF1BC06F5F7F4F8F4F9F4F63
:103CF00016C0882311F096E911C0772321F09EE8C1
:103D0000872F762F05C0662371F096E8862F70E026
:103D100060E02AF09A95660F771F881FDAF7880F00
:103D20009695879597F90895990F0008550FAA0B56
:103D3000E0E8FEEF16161706E807F907C0F01216BE
:103D40001306E407F50798F0621B730B840B950BC1
:103D500039F40A2661F0232B242B252B21F4089516
:103D60000A2609F4A140A6958FEF811D811D0895B3
:103D70000E94CB1E0C943C1F0E942E1F38F00E9404
:103D8000351F20F0952311F00C94251F0C942B1F48
:103D900011240C94701F0E944D1F70F3959FC1F366
:103DA000950F50E0551F629FF001729FBB27F00DE9
:103DB000B11D639FAA27F00DB11DAA1F649F66273E
:103DC000B00DA11D661F829F2227B00DA11D621F8D
:103DD000739FB00DA11D621F839FA00D611D221F47
:103DE000749F3327A00D611D231F849F600D211D2B
:103DF000822F762F6A2F11249F5750409AF0F1F0AE
:103E000088234AF0EE0FFF1FBB1F661F771F881F16
:103E100091505040A9F79E3F510580F00C94251F0A
:103E20000C94701F5F3FE4F3983ED4F3869577952A
:103E30006795B795F795E7959F5FC1F7FE2B880FBC
:103E4000911D9695879597F9089597F99F6780E852
:103E500070E060E008959FEF80EC089500240A94DC
:103E60001616170618060906089500240A94121655
:103E70001306140605060895092E0394000C11F488
:103E8000882352F0BB0F40F4BF2B11F460FF04C035
:103E90006F5F7F4F8F4F9F4F089557FD9058440F8E
:103EA000551F59F05F3F71F04795880F97FB991F99
:103EB00061F09F3F79F08795089512161306140656
:103EC000551FF2CF4695F1DF08C0161617061806E3
:103ED000991FF1CF86957105610508940895E894BE
:103EE000BB2766277727CB0197F90895F999FECF6D
:103EF00092BD81BDF89A992780B50895262FF9992A
:103F0000FECF1FBA92BD81BD20BD0FB6F894FA9ABC
:103F1000F99A0FBE01960895DB018F939F930E943B
:103F2000BE1FBF91AF91A29F800D911DA39F900DC9
:103F3000B29F900D11240895A1E21A2EAA1BBB1B5B
:103F4000FD010DC0AA1FBB1FEE1FFF1FA217B30765
:103F5000E407F50720F0A21BB30BE40BF50B661F7B
:103F6000771F881F991F1A9469F76095709580953F
:103F700090959B01AC01BD01CF0108950E940020E6
:103F8000A59F900DB49F900DA49F800D911D1124AD
:103F900008952F923F924F925F926F927F928F92ED
:103FA0009F92AF92BF92CF92DF92EF92FF920F93C8
:103FB0001F93CF93DF93CDB7DEB7CA1BDB0B0FB6D2
:103FC000F894DEBF0FBECDBF09942A88398848888F
:103FD0005F846E847D848C849B84AA84B984C88425
:103FE000DF80EE80FD800C811B81AA81B981CE0F1C
:103FF000D11D0FB6F894DEBF0FBECDBFED01089501
:10400000A29FB001B39FC001A39F700D811D112419
:10401000911DB29F700D811D1124911D089597FB74
:10402000072E16F4009407D077FD09D00E942320B4
:1040300007FC05D03EF4909581959F4F08957095AB
:1040400061957F4F0895AA1BBB1B51E107C0AA1FB2
:10405000BB1FA617B70710F0A61BB70B881F991F29
:104060005A95A9F780959095BC01CD010895EE0F62
:10407000FF1F0590F491E02D09945058BB27AA2703
:104080000E9455200C943C1F0E942E1F38F00E9465
:10409000351F20F039F49F3F19F426F40C942B1FA0
:1040A0000EF4E095E7FB0C94251FE92F0E944D1FAD
:1040B00058F3BA17620773078407950720F079F45D
:1040C000A6F50C946F1F0EF4E0950B2EBA2FA02DC1
:1040D0000B01B90190010C01CA01A0011124FF27B5
:1040E000591B99F0593F50F4503E68F11A16F040B0
:1040F000A22F232F342F4427585FF3CF46953795AF
:104100002795A795F0405395C9F77EF41F16BA0B73
:10411000620B730B840BBAF09150A1F0FF0FBB1F21
:10412000661F771F881FC2F70EC0BA0F621F731F6A
:10413000841F48F4879577956795B795F7959E3FC7
:1041400008F0B0CF9395880F08F09927EE0F979558
:10415000879508950E94BE200C943C1F0E94351F35
:1041600058F00E942E1F40F029F45F3F29F00C9474
:10417000251F51110C94701F0C942B1F0E944D1F72
:1041800068F39923B1F3552391F3951B550BBB2786
:10419000AA2762177307840738F09F5F5F4F220FCB
:1041A000331F441FAA1FA9F335D00E2E3AF0E0E8C2
:1041B00032D091505040E695001CCAF72BD0FE2F0C
:1041C00029D0660F771F881FBB1F261737074807A0
:1041D000AB07B0E809F0BB0B802DBF01FF27935858
:1041E0005F4F3AF09E3F510578F00C94251F0C94D8
:1041F000701F5F3FE4F3983ED4F3869577956795FB
:10420000B795F7959F5FC9F7880F911D969587958C
:1042100097F90895E1E0660F771F881FBB1F6217AB
:1042200073078407BA0720F0621B730B840BBA0B69
:10423000EE1F88F7E09508950E9423216894B1113C
:104240000C94701F08950E94551F88F09F5798F096
:10425000B92F9927B751B0F0E1F0660F771F881F8B
:10426000991F1AF0BA95C9F714C0B13091F00E94A5
:104270006F1FB1E008950C946F1F672F782F882768
:10428000B85F39F0B93FCCF3869577956795B395CC
:10429000D9F73EF490958095709561957F4F8F4F3B
:1042A0009F4F08950E94941E08F48FEF08950E9476
:1042B000941E880B990B0895A0E0B0E0E2E6F1E2CD
:1042C0000C94CD1FEC01009721F4CB010E945D22DC
:1042D000B4C0FC01E60FF71F9C0122503109E21720
:1042E000F30708F4A8C0D9010D911C911197061786
:1042F0001707B0F00530110508F49BC0C8010497FA
:104300008617970708F495C002501109061B170B72
:10431000019311936D937C93CF010E94F52289C084
:104320005B01A01AB10A4C01800E911EA0910A05F2
:10433000B0910B05612C712CE12CF12C109709F434
:1043400046C08D919C911197A815B905B1F56C01E6
:1043500042E0C40ED11CCA14DB0478F14C018A1867
:104360009B08640142E0C40ED11C1296BC901297C7
:104370001396AC91B5E0CB16D10440F0B282A38382
:1043800091828082D9016D937C9309C00E5F1F4F8B
:10439000800F911FF90191838083EB2DFA2FE11497
:1043A000F10431F0D7011396FC93EE93129741C0BC
:1043B000F0930B05E0930A053CC06816790608F4F3
:1043C0003C017D0112960D90BC91A02DB7CF80913C
:1043D00008059091090588169906E1F46616770696
:1043E000C8F48091010190910201009741F48DB7CA
:1043F0009EB74091050150910601841B950BE8176B
:10440000F907C8F4F0930905E0930805F9017183F1
:1044100060830FC0CB010E945D227C01009759F0A0
:10442000A801BE010E943022CE010E94F522C701E0
:1044300004C0CE0102C080E090E0CDB7DEB7EEE070
:104440000C94E91F81E090E0F8940C947E23803274
:1044500009F091110C94371E80528F55D8F70895AA
:10446000FB01DC0102C001900D9241505040D8F791
:104470000895FB01DC0101900D920020E1F7089501
:10448000FB01DC014150504030F08D9101908019CA
:1044900019F40020B9F7881B990B0895FB01DC0182
:1044A0004150504048F001900D920020C9F701C0E2
:1044B0001D9241505040E0F708950F931F93CF9302
:1044C000DF938230910510F482E090E0E0910A05DC
:1044D000F0910B0520E030E0A0E0B0E0309719F15A
:1044E000408151810281138148175907C8F0841710
:1044F000950769F4109731F012960C931297139662
:104500001C9327C000930A0510930B0522C02115A8
:10451000310519F04217530718F49A01BD01EF0154
:10452000DF01F801DBCF21153105F9F0281B390B2C
:104530002430310580F48A819B816115710521F059
:10454000FB019383828304C090930B0580930A053B
:10455000FE01329644C0FE01E20FF31F8193919356
:1045600022503109398328833AC0209108053091BF
:104570000905232B41F4209103013091040130936C
:1045800009052093080520910101309102012115B0
:10459000310541F42DB73EB7409105015091060118
:1045A000241B350BE0910805F0910905E217F3078C
:1045B000A0F42E1B3F0B2817390778F0AC014E5F93
:1045C0005F4F2417350748F04E0F5F1F50930905C2
:1045D000409308058193919302C0E0E0F0E0CF01A1
:1045E000DF91CF911F910F910895CF93DF930097A3
:1045F00009F481C0FC01329713821282A0910A054E
:10460000B0910B05109781F420813181820F931FA7
:1046100020910805309109052817390751F5F093C5
:104620000905E093080567C0ED0120E030E0CE17F2
:10463000DF0740F44A815B819E0141155105F1F08D
:10464000EA01F5CFD383C28340815181840F951F46
:10465000C817D90759F488819981840F951F02964C
:10466000918380838A819B81938382832115310585
:1046700029F4F0930B05E0930A053DC0E901FB83A3
:10468000EA8349915991C40FD51FEC17FD0761F4D6
:1046900080819181840F951F0296E9019983888317
:1046A000828193819B838A83E0E0F0E012968D9172
:1046B0009C911397009719F0FD01DC01F7CF8D91C4
:1046C0009C9111979D012E5F3F4F820F931F209168
:1046D0000805309109052817390769F4309729F43E
:1046E00010920B0510920A0502C013821282B09339
:1046F0000905A0930805DF91CF910895F894FFCFA5
:10470000FF00000C0520003F065B4F666D7D077FB4
:104710006F777C395E797110080440200102000037
:104720000000710A2B08B908BE0AEA08C808DC08AC
:10473000000000008D096009BD09340958094409C9
:1047400035094745545343414C494E473A002000F0
:104750000A0047455443414C3A00445F5343414E9D
:104760003A00544F4E494E4F3A0049495F53434136
:104770004E3A005345545343414C494E472045520D
:10478000524F52005345545343414C494E470053F6
:10479000455443414C204552524F520053455443D7
:1047A000414C00544F4E494E4F0049495F534341DD
:1047B0004E00445F5343414E0047455443414C0033
:1047C0005345545343414C49004745545343414C8E
:1047D00049005345544252494748004745544252C4
:1047E0004947480053455453414D504C00474554A8
:1047F00053414D504C00534554434D4F44450047A1
:104800004554434D4F44450053455443414C494E54
:104810000047455443414C494E005345544C544481
:10482000454C004745544C5444454C005245534573
:10483000544445460047455453414D504C494E471A
:104840003A004745544C5444454C41593A00474579
:1048500054434D4F44453A00474554425249474816
:10486000544E4553533A0047455443414C494E49F1
:10487000543A0053455443414C494E495400534522
:104880005443414C494E4954204552524F520053D3
:1048900045544C5444454C4159204552524F5200C6
:1048A0005345544C5444454C415900534554434D91
:1048B0004F4445204552524F520053455453414DA9
:1048C000504C494E47204552524F52005345545385
:1048D000414D504C494E4700534554425249474878
:1048E000544E455353204552524F52005345544263
:1048F00052494748544E4553530031203120370028
:0C4900006E616E00696E66006F766600E6
:00000001FF
